S00E0000426C696E6B792E73726563AD
S31500000000581AFE1FE927000029230000E5270000F3
S31500000010E5270000E5270000E527000000000000B6
S31500000020000000000000000000000000E5270000BE
S31500000030E527000000000000E5270000E527000096
S31500000040FFFFFFFFFFFFFFFFFFFFFFFFFFFFFFFFBA
S31500000050FFFFFFFFFFFFFFFFFFFFFFFFFFFFFFFFAA
S31500000060FFFFFFFFFFFFFFFFFFFFFFFFFFFFFFFF9A
S31500000070FFFFFFFFFFFFFFFFFFFFFFFFFFFFFFFF8A
S31500000400FFFFFFFFFFFDFFFFFFFFFFFFFFFFFFFFF8
S31500000410FFFFFFFFFFFFFFFFFFFFFFFFFFFFFFFFE6
S31500000420FFFFFFFFFFFFFFFFFFFFFFFFFFFFFFFFD6
S31500000430FFFFFFFFFFFFFFFFFFFFFFFFFFFFFFFFC6
S31500000440FFFFFFFFFFFFFFFFFFFFFFFFFFFFFFFFB6
S31500000450FFFFFFFFFFFFFFFFFFFFFFFFFFFFFFFFA6
S31500000460FFFFFFFFFFFFFFFFFFFFFFFFFFFFFFFF96
S31500000470FFFFFFFFFFFFFFFFFFFFFFFFFFFFFFFF86
S31500000480FFFFFFFFFFFFFFFFFFFFFFFFFFFFFFFF76
S31500000490FFFFFFFFFFFFFFFFFFFFFFFFFFFFFFFF66
S315000004A0FFFFFFFFFFFFFFFFFFFFFFFFFFFFFFFF56
S315000004B0FFFFFFFFFFFFFFFFFFFFFFFFFFFFFFFF46
S315000004C0FFFFFFFFFFFFFFFFFFFFFFFFFFFFFFFF36
S315000004D0FFFFFFFFFFFFFFFFFFFFFFFFFFFFFFFF26
S315000004E0FFFFFFFFFFFFFFFFFFFFFFFFFFFFFFFF16
S315000004F0FFFFFFFFFFFFFFFFFFFFFFFFFFFFFFFF06
S3150000050020000000200001002F0000002F00010045
S315000005100C00010011000000300000003000010056
S31500000520240000002400010024000200240003002F
S31500000530240004002400050013000000170000003A
S315000005402300000021000000210001000700000038
S31500000550070001000700020007000300070004006F
S31500000560070005000700060007000700120000004C
S3150000057044000000080000000B00000041000000DD
S31500000580400000004000010004000000430000009D
S315000005902B0000002B000A002B000B002B000C0088
S315000005A02B000D002B0001002B0002002B00030086
S315000005B02B0004002B0005002B0006002B00070073
S315000005C02B0008002B0009000600000006000A00A8
S315000005D006000B0006000C0006000D0006000E00CB
S315000005E006000F00060001000600020006000300D8
S315000005F006000400060005000600060006000700C7
S31500000600060008000600090015000000150001009C
S3150000061015000200310000002A000000450000001D
S3150000062010000000030100000300000003000100A9
S315000006300F0000000D0000002D0000004200000029
S315000006402C0000002C0001002C0002002C000300EE
S31500000650320000002800000018000000140000000E
S31500000660140001001400020014000300140004002A
S31500000670140005001400060014000700140008000A
S3150000068014000900340000003400010016000000C8
S31500000690160001003500000036000000360001009B
S315000006A02200000033000000330100002900000092
S315000006B010B5054C237833B9044B13B10448AFF396
S315000006C000800123237010BD2401FE1F00000000DE
S315000006D0CC50000008B5034B1BB103490348AFF3E8
S315000006E0008008BD000000002801FE1FCC5000005D
S315000006F070B4104C2268B2EB102F0BD9050A66684D
S31500000700C3B256F8256003F11002012000FA02F286
S31500000710324202D1032070BC70470029FBD003EBA4
S315000007200510A36853F82030C3F34003002070BCC3
S315000007300B707047E000FE1F0B4B10B41C68B4EB47
S31500000740102F03D803205DF8044B704749B1DB68CE
S315000007505DF8044B020A520104330020D3580B8083
S3150000076070470120EFE700BFE000FE1FB2B10C4B5F
S3150000077030B41D68B5EB102F4FEA102402D80320C1
S3150000078030BC7047DB6822EA0100640108330A4086
S3150000079042EA0042E250002030BC70470320704716
S315000007A0E000FE1F012920D8124B1A68B2EB102F69
S315000007B070B44FEA102415D95E68C0B256F82460AA
S315000007C000F11005012202FA05F535420AD002FAB7
S315000007D000F061B182B2DB68640108330020E250A8
S315000007E070BC7047032070BC70470320704702043A
S315000007F0F1E700BFE000FE1FE2B170B40E4C2568C1
S31500000800B5EB102F4FEA102302D8032070BC7047B7
S315000008105801E5682E582C5802EA0103334361EA71
S3150000082002019BB2220C19401204114329500020E8
S3150000083070BC704703207047E000FE1F0B4B10B4DE
S315000008401C68B4EB102F03D803205DF8044B7047E7
S3150000085051B1DB685DF8044B020A520104330020F3
S31500000860D3581B0C0B8070470120EEE7E000FE1FFB
S3150000087070B4144D2B68B3EB102F0BD9040A6E68B5
S31500000880C3B256F8246003F11002012000FA02F206
S31500000890324202D1032070BC70470029FBD0EA68BF
S315000008A06401043200FA03F3A4589AB203EA14432B
S315000008B0934214BF0020087070BC0CBF0020087063
S315000008C0704700BFE000FE1F30B40C4C2368B3EB4A
S315000008D0102F02D8032030BC7047002AFAD0E368F4
S315000008E0050A083322EA010003EB45130A4042EAEF
S315000008F0004230BC00205A60704700BFE000FE1F77
S31500000900174B1A68B2EB102F22D970B4040A5E682E
S31500000910C0B256F8246000F11002012505FA02F271
S31500000920324202D1032070BC7047A942FAD8DB6874
S3150000093003F1080303EB44140CD005FA00F06568D4
S3150000094045EA0040000C00046060002070BC70475F
S315000009500320704701FA00F06168084380B2F3E7AC
S31500000960E000FE1F20B14FF0022303600020704715
S3150000097001207047012959D82F4B1A68B2EB102F66
S31500000980F0B44FEA10244ED95D68C0B255F8245031
S3150000099000F110060122B2402A4244D000EB0410B6
S315000009A09C681D6954F82030002941D043F00401A9
S315000009B0224E0E40EFF31087012383F31088204B5D
S315000009C01A8892B222B94FF0400CEA7085F803C03B
S315000009D01A88013292B21A8087F31088CF0354F82E
S315000009E0202007D5174F22F480320F4044F82020EC
S315000009F044F8207044F82060EFF31081012282F35E
S31500000A0010881A8892B21AB11A88013A92B21A80DC
S31500000A101B889BB213B98022EB70EA7081F31088B1
S31500000A200020F0BC70470320F0BC704703207047DD
S31500000A3023F00401BCE700BFE000FE1FD5FC011F48
S31500000A404001FE1FD5FC001FF8B500284DD00B68ED
S31500000A500024043303EBC001254640F2024040F275
S31500000A60034640F204470FE0B24230D153F8042C5B
S31500000A7002F0B852B2F1807F14BF44F0020445F090
S31500000A80020508338B4211D01A888242ECD153F802
S31500000A90042C02F0B852B2F1807F03F1080314BFB0
S31500000AA044F0010445F001058B42EDD1E443E4B284
S31500000AB0012001F047FE0E4B93F8BB042843044087
S31500000AC083F8BB440120BDE8F84001F00BBEBA42F2
S31500000AD0D7D153F8042C02F0B852B2F1807F0CBF84
S31500000AE045F0040544F00404CBE70546FF24DFE7A0
S31500000AF000E0014070B582B00446002501A80E460C
S31500000B008DF8045001F0EEFB9DF80430DB0713D599
S31500000B10202C0ED8012E0CD8094B1B691A780CBF55
S31500000B2022EA0404144304F0300428461C7002B080
S31500000B3070BD032002B070BD062002B070BD00BFBC
S31500000B40E000FE1F01462DE9F047804631F8040B10
S31500000B50FFF77AFFB8F80030002B51D0DFF8ACC0B1
S31500000B60294A002401204FF0400A4FF08009D8F8A6
S31500000B700430DCF81070DCF80850A1B203EBC10EAB
S31500000B8053F83160BEF80430190ADBB203EB0113E7
S31500000B90EFF3108E80F31088118889B211B9F970BD
S31500000BA087F803A01188013189B211808EF310886D
S31500000BB016F4803F55F8231007D021F4803126F42F
S31500000BC0803E45F8231045F823E045F82360EFF30F
S31500000BD0108180F3108813889BB21BB11388013BE8
S31500000BE09BB2138013889BB213B9FB7087F80390EE
S31500000BF081F31088B8F800100134A3B29942B6D830
S31500000C000020BDE8F08700BF4001FE1FE000FE1F88
S31500000C1018B143680BB1FFF795BF0120704700BFBD
S31500000C20002833D0F0B5436887B00446002B2AD09D
S31500000C30174B184EDF6809220023CDE90233CDE9B0
S31500000C40043302A9019201A8B847029BF3600A2265
S31500000C50BDF80C308DF8042002A9059A726001A82F
S31500000C6001253360B847029B8DF8055002A901A8FB
S31500000C70B360B8476368029A326123B12046FFF732
S31500000C8061FF07B0F0BD012007B0F0BD012070473D
S31500000C90304B0000E000FE1F2DE9F0412E4D2B6881
S31500000CA0B3EB102F84B00CD96A684FEA1028C6B28D
S31500000CB052F8282006F11003012707FA03F313421E
S31500000CC003D1032004B0BDE8F0810C4602AB01A9B4
S31500000CD0ADF80C0038460294ADF80070019306EBAF
S31500000CE00816FFF7B1FE2969A868EFF3108587F3A8
S31500000CF010881A4A13889BB213B94027CB70CF705D
S31500000D00138801339BB2138085F31088E50350F8EE
S31500000D10263007D523F4803324F4803540F8263076
S31500000D2040F8265040F82640EFF31080012383F365
S31500000D30108813889BB21BB11388013B9BB21380AA
S31500000D4013889BB213B98022CB70CA7080F31088C7
S31500000D50002004B0BDE8F081E000FE1F4001FE1F48
S31500000D60034B04301B6823F820100020704700BF97
S31500000D704401FE1F034A031D1268002022F82300C7
S31500000D80704700BF4401FE1F034B1A68137843F0F7
S31500000D9080031370002070474401FE1F034B1A683E
S31500000DA013786FF3C7131370002070474401FE1FBA
S31500000DB020B1034B1B680360002070470120704779
S31500000DC0E845000060B1012808D1094B1B680020E6
S31500000DD040214122187119711A717047012070471C
S31500000DE0034B1B6840214122987099709A70704796
S31500000DF04401FE1FF0B587B0002830D004461A48DB
S31500000E0000230B22CDE90233CDE9043302A9C368DE
S31500000E10019201A89847064610B1304607B0F0BDCA
S31500000E20124F029B3B6001A801F0BEFB65685DB1F5
S31500000E30A368386803EB8505598813F8042B043238
S31500000E40AB4220F82210F7D12378002BE5D03A6880
S31500000E501378304643F08003137007B0F0BD0126C7
S31500000E60304607B0F0BD00BF304B00004401FE1F06
S31500000E70062070470620704720B1034B1B680360AD
S31500000E8000207047012070475846000035490B681E
S31500000E9093F8282002F03003102B14D0202B0AD010
S31500000EA0DFED316AF0EE667A67EEA67AFCEEE77A57
S31500000EB0C1ED067A704790F82B302C4A9B0932F820
S31500000EC013205AB97047038D10B403F00303284C5E
S31500000ED034F81340FCB95DF8044B7047D1ED047A41
S31500000EE090F82B30B8EE676A07EE902AB8EE677A6C
S31500000EF003F01F03C6EE076A07EE903AB8EE677A6C
S31500000F00F7EE007A77EE277A67EEA67AFCEEE77AB6
S31500000F10C1ED067A7047530622D5038D13F0100FE4
S31500000F200CBF0322002201EB820207EE904A92EDEB
S31500000F30016A038D5DF8044BB8EE677AB8EE466A2F
S31500000F40C3F30523C6EE076A013307EE903AFAEEBD
S31500000F50EF7A67EEA67AFCEEE77AC1ED067A70477D
S31500000F600322E0E7F400FE1F0000000064460000D4
S31500000F707446000051B3062810B429D005280AD0BB
S31500000F8004282DD0D8B1012842D0022838D0032811
S31500000F902ED0032010E0224C0023E0690B60026A89
S31500000FA0C2F3027290F8263003F0070304EB8303C2
S31500000FB000205B68D3400B605DF8044B7047184C0B
S31500000FC00860E069026AC2F30232EBE7012070476B
S31500000FD0134C0023E0690B60026AC2F30262E1E788
S31500000FE00F4C0023E0690B60026AC2F30242D9E7A4
S31500000FF00B4C0023E0690B60026A02F00702D1E79E
S31500001000074C0023E0690B60026AC2F30212C9E7CB
S31500001010034C0023E0690B60026AC2F30222C1E7B7
S31500001020F400FE1F70B50A784B788E78CD780024D0
S3150000103003F0070362F30E34104A63F30A241268BE
S3150000104066F306140E7992F82A2065F302044D79A8
S31500001050897966F3124465F31E7461F31A640546D2
S31500001060520748BF63F31244002001F06BFB2C6269
S315000010700020BDE8704001F035BB00BFF400FE1F44
S3150000108010B5174BDC6994F84120D00706D494F8C4
S315000010904130DB074FF0000010D410BD1A6894F8F9
S315000010A0263092F82820510603F0070313D4052BA7
S315000010B001D0032BEBD140F2971010BD01F042FB9B
S315000010C094F841306FF3000384F84130002001F0BA
S315000010D009FB002010BD228DD206EAD4E7E700BF47
S315000010E0F400FE1F38B5084BDD690446002001F008
S315000010F029FB95F8303064F3000385F83030002082
S3150000110001F0F0FA002038BDF400FE1F084B10B5C0
S31500001110DC69002001F016FB94F8523043F001031D
S3150000112084F85230002001F0DDFA002010BD00BF27
S31500001130F400FE1F084B10B5DC69002001F002FB2D
S3150000114094F852306FF3000384F85230002001F017
S31500001150C9FA002010BD00BFF400FE1F084B10B5F1
S31500001160DC69002001F0EEFA94F83E3043F080038B
S3150000117084F83E30002001F0B5FA002010BD00BF13
S31500001180F400FE1F084B10B5DC69002001F0DAFA06
S3150000119094F83E306FF3C71384F83E30002001F018
S315000011A0A1FA002010BD00BFF400FE1F084B10B5C9
S315000011B0DC69002001F0C6FA94F8533043F00103CD
S315000011C084F85330002001F08DFA002010BD00BFD6
S315000011D0F400FE1F084B10B5DC69002001F0B2FADE
S315000011E094F853306FF3000384F85330002001F075
S315000011F079FA002010BD00BFF400FE1F38B5084B79
S31500001200DD690446002001F09DFA95F8243064F368
S31500001210061385F82430002001F064FA002038BD5A
S31500001220F400FE1F03788B4214D343788B4211D30C
S3150000123083788B420ED3C3788B420BD343798B4290
S3150000124008D30379994205D8807981428CBF05205D
S31500001250002070470520704730B583B0CDE9000106
S31500001260002836D000F094FF07EE900AF8EE677A71
S31500001270B7EE007AC7EE276A174A184C15680020A1
S31500001280106094F82330D9B2DDED017A9DED007A35
S31500001290F8EE677AB8EE477A66EEA76AC7EE267A60
S315000012A0FCEEE77A17EE903A013BB3F1807F0CD261
S315000012B0536001F0F001F025072384F82350906075
S315000012C0136084F8231003B030BD1220156003B0FC
S315000012D030BD032003B030BD10E000E000ED00E0BB
S315000012E0052827D0144B042870B5DD6904460E4640
S315000012F006D195F88034DB0702D54FF4C87070BD6F
S31500001300002001F01FFA95F83E306FF3C71385F8F9
S315000013103E3095F83E3066F3061385F83E3095F874
S315000013203E3064F3020385F83E30002001F0DAF91E
S31500001330002070BD03207047F400FE1F30B583B057
S31500001340002957D00246002800F08180414DEB6904
S3150000135093F8AA4014F0010479D193F8A000196A11
S315000013602C68C1F302318DF80010196AC1F302210D
S315000013708DF80110196AC1F302118DF80210196A6D
S31500001380C1F302018DF80310196AC1F302418DF809
S315000013900410196AC1F302718DF805101B6AA16861
S315000013A0C3F3026300F003008DF8063000293DD038
S315000013B003283BD121696846FFF734FF002840D156
S315000013C01146012000F0A8FFEC69002001F0BAF9EF
S315000013D094F8403043F0800384F8403094F840306D
S315000013E043F0010384F84030002001F07BF900202F
S315000013F003B030BD174BDD6995F84130DB0722D4C9
S3150000140008460C4601F09EF995F8403064F3000357
S3150000141085F8403095F8403064F3C713204685F8C8
S31500001420403001F05FF9204603B030BDE368002B81
S31500001430C6D00228C4D161696846FFF7F3FE0028CA
S31500001440BED00520F0E74FF4CB7003B030BD0120CD
S3150000145003B030BDF400FE1F38B50B4B04461B68C5
S31500001460002093F8225001F06DF994F88034DB07E0
S3150000147005D594F8813423EA050384F88134BDE860
S315000014803840002001F02EB9F400FE1F06207047F8
S3150000149006207047062070470620704728B321B300
S315000014A0134BDB6993F82620C2F3020202701A6A14
S315000014B0C2F302320A701A6AC2F302224A701A6A28
S315000014C0C2F302128A701A6AC2F30202CA701A6A58
S315000014D0C2F302420A711A6AC2F302724A711B6AA5
S315000014E0C3F302638B71002070470120704700BF71
S315000014F0F400FE1F05292ED8DFE801F00A11181F97
S31500001500260390F82A0000F0010080F001007047E1
S3150000151090F8360000F0010080F00100704790F866
S31500001520380000F0010080F00100704790F8900448
S3150000153000F0010080F00100704790F8320000F0E2
S31500001540010080F00100704790F8800400F001006F
S3150000155080F0010070470020704700BF10B50A46B2
S3150000156082B0A2F102024FF6FF73B2FA82F20B4C7E
S3150000157001930146520904E0019B3BB1019B013BEB
S315000015800193E069FFF7B6FF9042F5D1019B002B6E
S315000015900CBF4FF4CD70002002B010BDF400FE1F4A
S315000015A030B5334C87B0204600F0A4FE3148002306
S315000015B00322CDE90233CDE904330092C36802A9C0
S315000015C068469847029DE5614FF6FF73019395F8CB
S315000015D03630DA0737D5002001F0B4F895F8A53093
S315000015E0062262F3020385F8A530002001F07AF89E
S315000015F02368E569D3E906124FF6FF7322611E4A96
S31500001600019300204FF40043C4E902236160A06106
S31500001610636101F097F895F8803443F0010385F88B
S315000016208034002001F05EF801210420FFF796FFC8
S315000016300546C0B9E069036A90F82630FFF70CFF4B
S31500001640284607B030BD95F83C30DB0708D4019B2F
S3150000165033B1019B013B019395F83C30DB07F6D58E
S31500001660019B002BB7D14FF4CD75284607B030BD8E
S31500001670F400FE1F304B000000127A00052857D8F0
S3150000168038B5514A0446D06990F8263003F007036E
S315000016909C421FD0052B10D090F82A30DB070CD5C2
S315000016A0012C1AD190F84030DB0972D12146FFF7A0
S315000016B021FF002860D1002038BD136893F8283038
S315000016C05D0664D5038D13F0100F0CBF03230023B2
S315000016D09C42E5D140F2911038BD2146FFF70AFF42
S315000016E00028E8D0032CD56938D0052C18D195F8F8
S315000016F03C309B0619D5002001F024F895F82A30D5
S3150000170043F0010385F82A30002000F0EBFF204665
S315000017100121FFF723FF0028CDD04FF4CD7038BD4F
S3150000172044B995F83C30D90744D440F2931038BDFB
S3150000173003207047002001F005F8631E042BE3D850
S3150000174001A252F823F000BF81170000991700008C
S315000017506B170000A7170000FD16000095F83C3037
S315000017601A07E2D5002000F0EDFF95F8323043F07D
S31500001770010385F83230C7E70020D56900F0E2FFA3
S3150000178095F8383043F0010385F83830BCE7032379
S315000017909EE740F2951038BD95F8903443F001036A
S315000017A085F89034B0E795F8803443F0010385F866
S315000017B08034A9E7204600F0C5FF95F8363043F09F
S315000017C0010385F836309FE7F400FE1F052818D878
S315000017D008B5431E012B014608D9042806D070B36C
S315000017E0032810D005281CD0002008BD1A4BD86944
S315000017F0FFF780FE10B140F2911008BD4FF4C8709B
S3150000180008BD03207047144AD069FFF773FE00280D
S31500001810F4D0D36993F83C301B070DD440F29310F3
S3150000182008BD0D4AD069FFF765FE0028E6D0D369EA
S3150000183093F83C309906F1D54FF4C97008BD064AB5
S31500001840D069FFF757FE0028D8D0D36993F83C300B
S31500001850DA07E3D5F0E700BFF400FE1F70B50546D2
S315000018604FF6FE7440F2931601E0013C0DD0284677
S31500001870FFF7ACFFB042F8D038B1B0F5C97F05D05C
S3150000188040F29113984208BF002070BD002070BD41
S3150000189030B583B04FF6FF730446012001930D4621
S315000018A000F050FF00230DF103008DF8033000F027
S315000018B0EFFB94F8AA30D80605D494F8A030D906E0
S315000018C0C3F300120AD5019B013B0193019B002B38
S315000018D0EFD1012000F006FF03B030BD94F8AA3026
S315000018E062F300034FF6FF7284F8AA30019202E019
S315000018F0019B013B019394F8AA30DA0603D494F8CD
S31500001900A030DB0602D5019B002BF1D194F8A03064
S31500001910042D0CBF43F0030365F3010384F8A030E4
S315000019204FF6FF73019302E0019B013B019394F88C
S31500001930AA30D80603D494F8A030D90602D5019B64
S31500001940002BF1D194F8AA30042D0CBF43F001030B
S315000019506FF3000384F8AA304FF6FF73019302E099
S31500001960019B013B019394F8AA30DA0603D494F85C
S31500001970A030DB0602D5019B002BF1D19DF80300B8
S3150000198000F09AFB012000F0ADFE03B030BD00BFB1
S315000019900428124B0ED002280CD01A6892688A428C
S315000019A007D3D86990F82A30DB0702D50321FFF761
S315000019B06FBF7047D86990F82A20D207EDD590F806
S315000019C03220D207E9D590F83620D207E5D590F82F
S315000019D03820D207E1D50421FFF75ABFF400FE1FD5
S315000019E0052800F2BA802DE9F843BE4F2DED028B93
S315000019F004460E460146F869FFF77CFD05460028B9
S31500001A0040F0AD80042C37D0012C00F0958024BB2B
S31500001A10FD6995F83C30DB0700F1A78095F8AA3000
S31500001A20DE0700F1AB8095F8A030002000F08AFEBA
S31500001A3095F836306FF3000385F83630002000F055
S31500001A4051FE20460221FFF789FD002818BF4FF4FA
S31500001A50CD70BDEC028BBDE8F883032C1AD0052CA3
S31500001A6000F09280FD6900F06DFEA31E022B6DD87A
S31500001A70DFE803F05B540900F869FFF7EDFC284640
S31500001A80FD6900F05FFE95F880346FF3000385F87A
S31500001A908034D3E7FE6996F83C30180765D496F88B
S31500001AA0AA30D90700F1D98096F8A030396800200D
S31500001AB091F8275091F8208091F8219000F042FE8D
S31500001AC096F8133405FA09F25BB25A4002EA0802A4
S31500001AD05340DBB286F81334002000F003FEFD69A4
S31500001AE0002000F02FFE95F813346FF3861385F867
S31500001AF01334002000F0F6FDFD69002000F022FE00
S31500001B0095F8A230052262F3030385F8A23000207F
S31500001B1000F0E8FD0020FD6900F014FE95F8323073
S31500001B206FF3000385F8323088E795F890346FF349
S31500001B30000385F8903481E7FD6995F8AA30DA0745
S31500001B4016D495F8A030002000F0FCFD95F838304A
S31500001B506FF3000385F8383070E703207047F869A3
S31500001B60FFF794F940F2911073E740F2931070E793
S31500001B7028460321FFF78CFEFD69E4E7284603218A
S31500001B80FFF786FEFD6950E7002E6CD03B68727841
S31500001B9093F8241091425BD393F8262096ED017AB0
S31500001BA007EE902AF8EE677AF4EEC77AF1EE10FAAD
S31500001BB04ED493F8253007EE903AF8EE677AB4EEF5
S31500001BC0E77AF1EE10FA43D43178032901D00029DF
S31500001BD03ED1F869FFF78EFC002846D0FD6995F8DE
S31500001BE03C309A06C1D495F8AA30DB0740D495F864
S31500001BF0A03096F80080002000F0A4FD2B8DB8F1EF
S31500001C00030F0CBF6FF3041343F010032B85002062
S31500001C1000F068FD3B68FD6993F8283096F801806E
S31500001C2003F03003102B61D0202B27D02846FFF776
S31500001C302DF9F8690021FFF72BFEFD69002000F061
S31500001C4081FD95F82A306FF3000385F82A30F5E612
S31500001C50BDEC028B0320BDE8F88330462146FFF732
S31500001C6017FEFE6922E70120F3E64FF4CA70F0E69C
S31500001C7028460321FFF70CFEFD69BAE71A4B002040
S31500001C8033F8188000F05EFD95F82B3068F3871363
S31500001C9085F82B30002000F025FD3B68FD6993F8A0
S31500001CA0283096ED018A03F03003102B37D03B68BD
S31500001CB093F8283003F03003202B10D1002000F0D9
S31500001CC041FDFCEEC87A95F82B2017EE903A013BC1
S31500001CD063F3040285F82B20002000F003FDFD6964
S31500001CE0A4E700BFF400FE1F5C460000154B002071
S31500001CF033F8189000F026FD2B8D69F301032B8530
S31500001D00002000F0EFFC3B6893F8283003F0300326
S31500001D10202BB3D0102BFD6988D196ED018A0020C7
S31500001D2000F010FD78EE087A2A8DFCEEE77A0020A6
S31500001D3017EE903A013B63F30D222A8500F0D2FCA0
S31500001D40B5E700BF6C460000012838B50C4611D037
S31500001D50022801D0002038BD052915460FD0291DBF
S31500001D602046FFF73DFE0028F4D040F2911398423A
S31500001D70F0D038BDBDE838400846FFF77FBC107983
S31500001D801146FFF72DFE18B140F291139842E2D1A9
S31500001D902879FFF763FD0028E1D0DCE72DE9F04163
S31500001DA0052884B028D80C46002900F09F800B78BF
S31500001DB08A79934220D3497899421DD3E178994292
S31500001DC01AD863799A4217D82179914214D30428F4
S31500001DD0064616D05C4FF86990F8263003F00703E4
S31500001DE09E4225D0002E40F09A8090F83C30D907CC
S31500001DF01ED440F2931500E00325284604B0BDE842
S31500001E00F081134340F089804F4FF86990F84030D5
S31500001E10DB0940F0828090F8263003F00703042B9C
S31500001E2006D03146FFF766FB002800F08980F86986
S31500001E30036A036A036A036A036A036A036A002180
S31500001E40C3F30268FFF724FD07EB8602A079536807
S31500001E50F969C340002201938DF800208DF80C200B
S31500001E600A6A91F8263003F0070307EB8303C2F3EF
S31500001E7002625B686846D340029300F099F9054612
S31500001E800028BAD1A379434535D8D7F81C8000F08D
S31500001E9059FC98F8263066F30203284688F826305F
S31500001EA000F020FCF8692146FFF7BCF8FB691A6AC6
S31500001EB093F8263003F0070307EB8307C2F30262A9
S31500001EC07B686846D340012202938DF8002000F01B
S31500001ED06FF90546002890D100F05AF91B4B0146D0
S31500001EE0186068B33046FFF753FD86E7012528469C
S31500001EF004B0BDE8F0812146F869FFF793F8FC6964
S31500001F00284600F01FFC94F8263066F302032846A4
S31500001F1084F8263000F0E6FBC8E705256DE7032EBA
S31500001F2008D0052E7FF47DAF90F83C309B063FF538
S31500001F307FAF5EE790F83C301A073FF579AF58E778
S31500001F404FF4C87559E700BFF400FE1F9401FE1F49
S31500001F502DE9F04782B000284ED04C4F828AFB69AB
S31500001F60067893F82680196A196A196A196A196A2D
S31500001F70196A1B6A0446C07CE17D8DF8020053BADB
S31500001F80207EA27D94F815A0ADF80030052E8DF8C0
S31500001F90031008F007088DF804208DF8050026D8F0
S31500001FA002AB334413F8083C012B20D0022808D199
S31500001FB02379052B1BD802AA134413F8083C012BDE
S31500001FC015D022460521FFF7BFFE0546C8B940F2E7
S31500001FD09119E9B2504622460135FFF7B5FE08B120
S31500001FE048453BD1052D12D01DF805A0F1E7032584
S31500001FF0284602B0BDE8F0870125284602B0BDE8B4
S31500002000F08740F291139842F2D10025DFE730467F
S31500002010FFF724FC05460028EAD1042E20D02F46DF
S3150000202004F10C013046FFF7B9FE05460028DFD162
S31500002030464505D002AB434413F8083C012B08D0B3
S31500002040002FD5D000F0A4F801463046FFF7A0FCDB
S31500002050CEE74046FFF712FB0028F1D00546C7E75A
S31500002060FB6993F82A20D0070ED593F83220D107C2
S315000020700AD593F83620D20706D593F8387007F0BC
S31500002080010787F00107CBE70127C9E7F400FE1F28
S3150000209068B1084AB2F80031C3F30003037092F83E
S315000020A000316FF3000382F80031002070470120F1
S315000020B0704700BF00C00140104991F8043143F059
S315000020C0010381F80431B1F80431DB070AD54FF07A
S315000020D0FF3300E07BB1B1F80421D20703F1FF33EF
S315000020E0F8D443B1054A92F8003160F3000382F850
S315000020F00031002070471420704700BF00C0014027
S3150000210070B5204D82B02B6898470120FFF7D4FFA9
S31500002110AE6800210320B0471B4AEC69019240F2E9
S315000021200313ADF800300320A047B0F5C97FFAD1FC
S3150000213069460520B04728B140F29113984201D074
S3150000214000BEEC690520A047B0F5C97FFAD10F4B58
S31500002150009340F2012200238DF8063069462B6970
S31500002160ADF804200520984700B100BE2B6E042070
S315000021709847AB6A01209847EB6A9847AB6D98473A
S3150000218002B070BDEC4500000000A0410102020152
S3150000219000B5064B83B000229B69019201A9062077
S315000021A09847019803B05DF804FB00BFEC450000BA
S315000021B00378C3B1012B14D18368444A017B93424F
S315000021C046D9434A934258D9424A92F81C3103F001
S315000021D00703994205D092F81C3161F3020382F895
S315000021E01C3100207047426838498A424FD93A4B21
S315000021F070B4F1251D71197A354E41F0040119723A
S31500002200197A41F008011972197A41F0010119721F
S31500002210197AF02441F00201B24219721C713FD9B9
S315000022201D711A7A42F010021A721C71022303738E
S31500002230284991F81C2102F007029A4205D291F82A
S315000022401C2163F3020281F81C21002070BC704738
S31500002250214BF1221A711A7A6FF382021A721A7AD4
S315000022606FF3C3021A721A7A6FF300021A721A7A9D
S31500002270F0206FF341021A721871174BF1221A718E
S315000022801A7AF0206FF304121A7218719CE7134938
S315000022908A420BD80F4A037392F81C31002070470C
S315000022A00F4B9A42C2D801230373C1E701230949A0
S315000022B0037391F81C2102F007029A4291D291F819
S315000022C01C2163F3020281F81C218AE7000E27070E
S315000022D000C2EB0B00C001400020004000B4C40463
S315000022E000688909037823F0030343F003030370AE
S315000022F0704700BF014B0360704700BF7C4600007B
S31500002300044B002103F1300243F8041B9342FBD136
S31500002310704700BF4801FE1F024B43F82010002003
S31500002320704700BF4801FE1F08B56F4BB3F8403138
S31500002330D80700F1CB806C4BB3F84031990700F118
S31500002340B880694BB3F840315A0700F1A580664B57
S31500002350B3F840311B0700F19280634BB3F840316C
S31500002360D8067FD4604BB3F840315906C3F38010CA
S315000023706CD45D4BB3F840311A065AD45A4BB3F8B5
S315000023804031DB0548D4584BB3F84031980536D474
S31500002390554BB3F84031590524D4534BB3F840316B
S315000023A01A0512D4504BB3F84031DB0400D408BDF3
S315000023B04E4BDB6A0BB10B2098474B4AB2F83031D3
S315000023C043F48053A2F8303108BD484B9B6A0BB1E9
S315000023D00A209847444AB2F8303143F40063A2F821
S315000023E03031DFE7414B5B6A0BB1092098473E4A23
S315000023F0B2F8303143F48063A2F83031CDE73B4B7D
S315000024001B6A0BB108209847374AB2F8303143F4BB
S315000024100073A2F83031BBE7344BDB690BB1072000
S315000024209847314AB2F8303143F48073A2F830311C
S31500002430A9E72E4B1B680BB1002098472A4AB2F831
S31500002440303143F08003A2F8303197E7274B5B68C1
S3150000245003B19847244AB2F8303143F04003A2F85A
S31500002460303186E7214B9B690BB1062098471E4AFF
S31500002470B2F8303143F01003A2F8303172E71B4B4B
S315000024805B690BB105209847174AB2F8303143F023
S315000024900803A2F8303160E7144B1B690BB1042026
S315000024A09847114AB2F8303143F00403A2F83031AC
S315000024B04DE70E4B9B680BB1022098470A4AB2F8CB
S315000024C0303143F00203A2F830313AE7074BDB68BC
S315000024D00BB103209847044AB2F8303143F00103A8
S315000024E0A2F8303127E700BF006000404801FE1F18
S315000024F0114B0278995C01F01F03890630B44488B9
S31500002500457805D42C441B1B0120984030BC7047ED
S3150000251001212B2A01FA03F008D0332AF6D1012D26
S3150000252004BF013305FA03F030BC7047072CEDD920
S31500002530013301FA03F0E9E7A84600000378452BCA
S3150000254028D870B51646164AD45CFF2C26D00D4600
S31500002550FFF7CEFF134BA20953F822306DB1A20646
S315000025601AD4EFF31081012282F310881A681043FF
S31500002570186081F31088002070BDEFF310810122EE
S3150000258082F310881A6822EA0000186081F3108826
S31500002590284670BD01207047002EE2D1032070BD91
S315000025A0A8460000F046000000221146FFF7C6BF0D
S315000025B0034638B1054A92E80300002283E8030087
S315000025C01046704701221046704700BF18470000AA
S315000025D0A0F101000028FBD1704700BF2DE9D043D0
S315000025E001FB00F4FFF7D4FD4FF47A71A4FB0189D7
S315000025F000274FF0FF364F4508BF46450E4BB3FB4D
S31500002600F0F007D3B8FBF0F0800890B1BDE8D043F6
S31500002610FFF7DEBF8000B4FBF0F0A0FB01018F42A4
S3150000262008BF8642F1D2BDE8D0434FF0FF30FFF736
S31500002630CFBFBDE8D08300BF00CA9A3B0B4A0C4B04
S3150000264010B49B1A0B4CDB08236063B10A480021C7
S315000026509388C3F3090340F8043B236801318B4296
S3150000266002F10802F4D85DF8044B7047000500003B
S31500002670000500007801FE1F00630040F0B5134E10
S31500002680134C1449144A154BDFF854C00E60A41BB2
S31500002690A4081460C3F800C08CB106EB8407354665
S315000026A04FF0000E55F8040B3246002352F8041B77
S315000026B0884205D001339C42F8D1BD42F2D1F0BD2B
S315000026C0BD420CF803E0EDD1F9E700BF00050000BC
S315000026D0B00600008001FE1F7C01FE1F8401FE1F64
S315000026E07400FE1FEFF31081012383F31088124B51
S315000026F033F8102092B22AB133F81020013A92B280
S3150000270023F8102033F810309BB293B90B4A10B45B
S31500002710B2F8FE330A4C9BB234F8100043F425435A
S3150000272023EA0003A2F8FE3381F310885DF8044B18
S31500002730704781F3108870478801FE1F00E0014052
S315000027400447000030B4EFF31081012383F31088AF
S315000027500D4A32F810309BB263B90C4C0C4DB4F8EC
S31500002760FE3335F810509BB22B4343F425439BB2FE
S31500002770A4F8FE3332F8103001339BB222F8103041
S3150000278081F3108830BC70478801FE1F00E00140CD
S3150000279004470000024B00221A805A809A80704734
S315000027A08801FE1F0C490A6808B54AB1033020F0BB
S315000027B003030A481344834205D80B60104608BD3C
S315000027C0074A0A60F2E700F0C7FB0C234FF0FF321E
S315000027D00360104608BD00BF9001FE1F5812FE1F81
S315000027E05802FE1F00BE704708B500F005F800F05D
S315000027F099F9FEE7704700BF454AD2F8883043F49E
S3150000280070032DE9F0410020C2F88830FFF7F2FF8F
S31500002810FFF776FD3F4B1B689847FFF7BBFFFFF7B7
S315000028206FFC3D4A3D4B3E481B6800241480984788
S315000028303C493D4B8B4204D0224603F8012D994278
S31500002840FBD13A483A4B984206D03A4A12F8011B55
S3150000285003F8011B8342F9D1374B38493848394AC6
S3150000286000244FF425459C801D809860DA60B1F8FD
S31500002870202192B242F480520125A1F820219D80A8
S31500002880FFF786FC304B024628461A602F4DFFF7AD
S31500002890B1FF2F4B5B1BA3424FEAA30805DD55F89A
S315000028A0043B01349847A045F9DCFFF7E7FEFFF744
S315000028B0C5FE284B284C1B6828489847D4E90001D8
S315000028C0D4E90023584000F055FBD4E900232449FD
S315000028D02448561843EB0007C4E90067D4E9000111
S315000028E080F01E4281F07D4382F4120283F42D03B0
S315000028F082F4384283F4A44382F0370283F02B0338
S31500002900C4E900230020BDE8F04100F02DB800BF67
S3150000291000ED00E0304B00004001FE1F9045000036
S31500002920304700002401FE1F5802FE1FE000FE1F74
S315000029300000FE1FD0500000000D00400060004067
S315000029405812FE1F571AFE1F9401FE1F6C00FE1F31
S315000029507000FE1FCC4500001801FE1F0C4700004A
S315000029601654E7A1E34FE6F400F040B882B04FF00A
S31500002970C84300210091009A5A6961F300025A6126
S315000029809A6AC8B1202161F30F229A629A6A4FF0BF
S31500002990C04142F080029A620A68009240F6FF72D5
S315000029A0019204E0019A013A0192019A12B19A6ADF
S315000029B05106F7D502B0704742F47F429A629A6A8E
S315000029C04FF0C04160F3C7129A620A68009240F65F
S315000029D0FF72019205E0019A013A0192019A002ADA
S315000029E0E8D09A6A5206F6D402B07047F8B54A4A59
S315000029F011684FF0C84400236FF386111020116050
S31500002A002063A36123626363C4F80438A26863F396
S31500002A100402A2606369FF2243F00103636122613D
S31500002A206369662243F00103636122616369992247
S31500002A3043F0010363612261636943F0010363614B
S31500002A4001212320FFF7CAFD9F2323612269334B0F
S31500002A50D2B21A702169C9B259702069C0B2987091
S31500002A606569EF2A45F00105656101D1402903D06A
S31500002A7000221A809A70F8BD1728F9D10522226122
S31500002A8020696169264B41F00101352661612661A5
S31500002A9021691970616941F001016161A56A04212A
S31500002AA061F30305A5626568502761F30305656058
S31500002AB02761656945F0010565611D7845F00205E8
S31500002AC01D700127C0B227612061187820616069F6
S31500002AD0384360612161616939436161216862F34C
S31500002AE0020121602261226962693A4362612661BC
S31500002AF022691A7063693B436361236843F04003AC
S31500002B002360A369DB07FCD40120FFF72FFF63696D
S31500002B106FF300036361F8BD007004409801FE1F67
S31500002B209C01FE1F08B500F003F8002008BD00BF99
S31500002B3070B582B06846FFF73BFDBDF80030DBB1EB
S31500002B400E4A56680125C5F10105EDB25BB10024B8
S31500002B50019A336A32F8140029469847BDF80030C6
S31500002B600134A342F4D84FF47A714FF4FA70FFF7A8
S31500002B7035FDBDF80030E6E7FEE700BF2847000058
S31500002B8070B1084A084B12689A4207D1074B1B6876
S31500002B905A6803EB820303600020704712207047D7
S31500002BA0012070472001FE1F494D46009CB17F4021
S31500002BB020B1034B1B68036000207047012070475B
S31500002BC0484B0000A8B10C4A0C4B12689A420ED131
S31500002BD00B4B1B685A6800F1100103EB820353F894
S31500002BE0042F40F8042B8842F9D1002070471220A8
S31500002BF070470120704700BF2001FE1F494D460067
S31500002C009CB17F4070B36AB3F0B51A4C1A4B246876
S31500002C109C4201D01220F0BD184B1F6827B3184BF9
S31500002C2090F800C01B68002404E00134BC4203F1A4
S31500002C30080319D09D796545F7D15E794588B5EBCE
S31500002C40960FF2D1DD79467805F0070EB645ECD140
S31500002C50B1EBD50FE9D114709B88C3F309035380F8
S31500002C600020F0BD01207047DF21FF231170538043
S31500002C700B20F0BD2001FE1F494D46007801FE1FC6
S31500002C80004700001E4B1A6892B103F57F710020C1
S31500002C9001E053F8042F8B421044FAD140B9194B86
S31500002CA01B681A0CB2F5807F05D000BE00BEFCE79B
S31500002CB000BE00BEFCE71A68013A033202D900BE24
S31500002CC000BEFCE710B4104A93F8241014788C4226
S31500002CD001D000BEFDE7517893F82540A142F8D116
S31500002CE0917893F82640A142F3D1D27893F8273011
S31500002CF09A42EED1054B064A5DF8044B1A607047BE
S31500002D004C4B00009CB17F40704B00002001FE1F21
S31500002D10494D4600002862D0002960D0894A8A4B76
S31500002D2012689A4201D0122070472DE9F041874D72
S31500002D300278AC6805EB8404A3789A4280F0CF80D1
S31500002D40170904EB870C02F00F06BCF8088028FA76
S31500002D5006FE1EF0010F00F0C28012F0080F9CF86C
S31500002D600AC009D004EB870702F00706FA7A02F0D8
S31500002D700F0294444FEA1828754F764ABE5D06EA5C
S31500002D8008061B09925D023362449B0003EB420373
S31500002D90E218E35A92F90160C3F30903002E05EB2A
S31500002DA083021EDB4678002E40F09580D778408857
S31500002DB0D4F804C03E46C6F30304C7F3031701263E
S31500002DC04F728C728E80002834D135F82330927879
S31500002DD0CA800CEB03230B600872C8607DE00120FB
S31500002DE0704715F8233044785B0834BB032B7ED03C
S31500002DF05DD878D0D578167940882C46C5F303156A
S31500002E004D72B5B2C4F3030485428C728D8011D91C
S31500002E10D4889568012B00FB04540C6000F089806F
S31500002E20022B77D0B2F80130CB8000220A72CA603A
S31500002E30002B5AD140F27A504FE002270125042692
S31500002E4092F800C01CF0010F04F1FF3443D0052BAB
S31500002E5076D8DFE803F003261A15130A0C231A4462
S31500002E6013785B08002CEBD1C0E7937803F1030CD1
S31500002E7017FB035303EB9C039B00F0E70823EEE7E5
S31500002E80937816FB03539B00E9E792F804C0937806
S31500002E9013FB0CF303330CF1030C03EB9C039B00B5
S31500002EA0DDE71379033303F4FE730C33D7E7042B02
S31500002EB019D1D078547855680D600346C3F30302E0
S31500002EC00023C0F303108B800B72CB60A307CC806A
S31500002ED048728A7209D440F27950BDE8F0814FF405
S31500002EE0AF60BDE8F0816420F7E70020F5E7D07811
S31500002EF054789578CC800346C0F30310C3F30303DC
S31500002F0004320424487200208B728D80CA600C72D1
S31500002F100860E2E79478033600FB04F303EB9606B9
S31500002F201044F31C02EB8302037BCB80CA600C7255
S31500002F307EE710440022037BCB800A72CA6077E7E3
S31500002F4000238CE72001FE1F494D46004C4B000034
S31500002F50284B0000A84A0000014B1868704700BFC4
S31500002F600000FE1F02440346934200D1704703F857
S31500002F70011BF9E738B5104B1D68AB6B0446B3B9B6
S31500002F80182000F055F80246A86320B90B4B0C48F0
S31500002F90422100F01DF80B490B4BC0E900130B4B07
S31500002FA083600B23838100210120C2E90401AB6BFE
S31500002FB000221C615A6138BD0000FE1F504F000000
S31500002FC0674F00000E33CDAB34126DE6ECDE050024
S31500002FD01FB514461A46094B1B680546D8684CB1FE
S31500002FE0074B0091CDE9013406492B4600F00EF857
S31500002FF000F08EFC044B1C46F3E700BF0000FE1FEA
S31500003000E34F0000F04F00001E5000000EB403B561
S31500003010014603AB054853F8042B0068019300F002
S31500003020E3F802B05DF804EB03B070470000FE1F42
S31500003030024B0146186800F053B800BF0000FE1F9F
S3150000304037B5002948D051F8043C0190002BA1F176
S315000030500404B8BFE41800F0D3FE204A01981368B0
S31500003060154633B96360146003B0BDE8304000F024
S31500003070CDBEA3420BD921686218934204BF1A68D9
S315000030805B68636004BF521822602C60ECE71A4646
S315000030905B680BB1A342FAD911685518A5420BD14A
S315000030A0246821445418A3421160DDD11C685B6872
S315000030B0536021441160D7E702D90C230360D3E79C
S315000030C0256861198B4204BF19685B68636004BF99
S315000030D0491921605460C7E703B030BDA001FE1F47
S315000030E0F8B5CD1C25F0030508350C2D38BF0C2589
S315000030F0002D064601DBA94203D90C2333600020CC
S31500003100F8BD00F07DFE21490A6814469CB9204F9F
S315000031103B6823B92146304600F02AFB3860294631
S31500003120304600F025FB431C23D10C233360304688
S3150000313000F06CFEE3E723685B1B17D40B2B03D967
S3150000314023601C44256004E06368A2420CBF0B6048
S315000031505360304600F05AFE04F10B00231D20F0A8
S315000031600700C21ACCD01B1AA350C9E722466468CE
S31500003170CCE7C41C24F00304A042E3D0211A304655
S3150000318000F0F6FA0130DDD1CFE700BFA001FE1F47
S31500003190A401FE1F9368013B002B10B4936008DA6C
S315000031A09469A34201DB0A2903D15DF8044B00F0C0
S315000031B0EFBA1368581C1060197008465DF8044B86
S315000031C07047F8B506460F461446D518AC4201D1ED
S315000031D0002007E014F8011B3A463046FFF7DAFFF5
S315000031E0431CF3D1F8BDFFFF2DE9F04F0D469DB00E
S315000031F014469846064618B183690BB900F0AAFC36
S31500003200894B9D421BD175686B6ED90705D4AB8976
S315000032109A0502D4A86D00F03BFDAB891B0701D5CA
S315000032202B69EBB92946304600F004FBC0B16B6E42
S31500003230DC070ED54FF0FF301DB0BDE8F08F7B4B9D
S315000032409D4201D1B568DFE7794B9D4208BFF5681D
S31500003250DAE7AB899805EDD4A86D00F01AFDE9E729
S315000032600023099320238DF82930CDF80C803023D4
S31500003270DFF8C0818DF82A304FF0010923469A46BF
S3150000328013F8012B0AB1252AF9D1BAEB040B0BD09E
S315000032905B46224629463046FFF793FF013000F091
S315000032A0AA80099A5A4409929AF80030002B00F035
S315000032B0A28000234FF0FF32CDE905230AF1010A6F
S315000032C0049307938DF853301A935446052214F845
S315000032D0011B584800F044FD049AD8B9D10644BFF2
S315000032E020238DF85330130744BF2B238DF853301A
S315000032F09AF800302A2B15D0079A544600204FF032
S315000033000A0C214611F8013B303B092B4ED9B0B1CE
S31500003310079214E0A0EB080309FA03F3134304939E
S31500003320A246D2E7039B191D1B680391002BBBBF66
S315000033305B4242F0020207930793B8BF04922378D8
S315000033402E2B0CD163782A2B35D1039B1A1D1B68B3
S315000033500392002BB8BF4FF0FF3302340593DFF81A
S31500003360E4A021780322504600F0FAFC40B1402345
S31500003370A0EB0A0003FA00F0049B03430134049314
S3150000338014F8011B2C488DF82810062200F0E8FCE2
S3150000339000283FD0294B1BBB039B073323F00703B1
S315000033A008330393099B3B44099367E70CFB0232FE
S315000033B00C460120A5E700230134059319464FF07A
S315000033C00A0C204610F8012B303A092A03D9002BA3
S315000033D0C5D00591C3E70CFB012104460123F0E7A4
S315000033E003AB00932A46164B04A93046AFF3008080
S315000033F00746781CD6D16B6ED90705D4AB899A05DA
S3150000340002D4A86D00F045FCAB895B063FF512AF10
S31500003410099811E703AB00932A46094B04A93046E5
S3150000342000F080F8E4E700BF7450000094500000FC
S31500003430545000001F5000002950000000000000FA
S31500003440C3310000255000002DE9F0471646994685
S315000034508A680B69DDF820809342B8BF1346336053
S3150000346091F8432007460C460AB1013333602368BE
S31500003470990642BF336802333360256815F00605A6
S3150000348006D104F1190AE36832689B1AAB4226DCBE
S3150000349094F84320131E226818BF012392062BD4EA
S315000034A004F1430249463846C04701301ED023681E
S315000034B0E568326803F00603042B08BFAD1AA3685B
S315000034C022690CBF25EAE57500259342C4BF9B1A05
S315000034D0ED1800261A34B5421AD1002008E001235F
S315000034E0524649463846C047013003D14FF0FF30B7
S315000034F0BDE8F0870135C6E7E1185A1C302081F88F
S315000035004300224494F8451082F843100233C7E77B
S315000035100123224649463846C0470130E6D00136E7
S31500003520D9E7FFFF2DE9FF470C469146277E0C9908
S31500003530782F80469A4604F1430207D8622F0AD8AC
S31500003540002F00F0D880582F00F0A38004F1420627
S3150000355084F842703AE0A7F16303152BF6D801A070
S3150000356050F823F0BD350000D13500004D35000080
S315000035704D3500004D3500004D350000D1350000B9
S315000035804D3500004D3500004D3500004D3500002D
S31500003590DD36000001360000BF3600004D35000064
S315000035A04D350000FF3600004D35000001360000A5
S315000035B04D3500004D350000C73600000B681A1D5A
S315000035C01B680A6004F1420684F842300123A3E036
S315000035D0256808682E0600F104030AD505680B6005
S315000035E0002D03DA2D236D4284F843305E480A230A
S315000035F019E015F0400F05680B6018BF2DB2EFE714
S315000036000B682568181D0860280601D51D6802E0AC
S315000036106906FBD51D8854486F2F0CBF08230A2363
S31500003620002184F843106668A660002EA2BF2168B8
S3150000363021F0040121600DB9002E4DD01646B5FBD0
S31500003640F3F103FB1157C75D06F8017D2F46BB4218
S315000036500D46F4D9082B0BD12368DF0708D523695B
S3150000366061689942DEBF302306F8013C06F1FF3659
S31500003670921B2261CDF800A04B4603AA2146404684
S31500003680FFF7E2FE01304CD14FF0FF3004B0BDE849
S31500003690F087354884F8457023680E681F0656F88B
S315000036A0045B0E6014D5D90744BF43F020032360A2
S315000036B01DB9236823F0200323601023B0E7236895
S315000036C043F0200323607823284884F84530E3E755
S315000036D05E0648BFADB2E6E71646BBE70B6826684E
S315000036E060691D1D0D6035061B6801D5186002E076
S315000036F07106FBD51880002323611646BAE70B68CE
S315000037001A1D0A601E6862680021304600F028FB18
S3150000371008B1801B606063682361002384F843302E
S31500003720A8E72369324649464046D0470130ABD028
S3150000373023689B0713D4E068039B9842B8BF1846DA
S31500003740A4E70123324649464046D04701309BD084
S315000037500135E36803995B1AAB42F2DCEBE700251F
S3150000376004F11906F5E700BF305000004150000093
S3150000377038B5064D0023044608462B60FFF712F8BD
S31500003780431C02D12B6803B1236038BD5402FE1FCF
S31500003790F8B50E461446054618B183690BB900F014
S315000037A0D9F9214B9C422BD16C68A369A360A389EC
S315000037B01A072FD523696BB323692068C01A63697A
S315000037C0F6B28342374604DC2146284600F02EF93D
S315000037D030BBA368013BA36023685A1C22601E709D
S315000037E063690130834204D0A389DB0706D50A2E1C
S315000037F004D12146284600F019F988B93846F8BDA3
S315000038000A4B9C4201D1AC68CFE7094B9C4208BFEA
S31500003810EC68CAE72146284600F00CF80028CBD011
S315000038204FF0FF37EAE700BF7450000094500000E5
S3150000383054500000324B70B51D6806460C4625B143
S31500003840AB6913B9284600F085F92E4B9C420FD17F
S315000038506C68A389B4F90C2019072CD4DD0611D4A1
S315000038600923336042F04003A3814FF0FF303EE06E
S31500003870254B9C4201D1AC68EBE7244B9C4208BF28
S31500003880EC68E6E7580712D5616B41B104F14403D1
S31500003890994202D03046FFF7D3FB00236363A38926
S315000038A023F02403A3810023636023692360A38993
S315000038B043F00803A38123694BB9A38903F420735A
S315000038C0B3F5007F03D02146304600F007FAA08901
S315000038D0B4F90C2010F001030AD00023A360636939
S315000038E05B42A361236943B910F08000BAD170BD71
S315000038F0810758BF6369A360F4E70020F7E700BFBC
S315000039000000FE1F74500000945000005450000048
S3150000391008B5062000F0A8FA012000F0BDFDFFFF63
S315000039208A892DE9F041054610070C4658D44B68A4
S31500003930002B05DC0B6C002B02DC0020BDE8F081BF
S31500003940E66A002EF9D0002312F480522F682B600D
S3150000395032D0606DA3895A0705D56368C01A636BB8
S315000039600BB1236CC01A00230246E66A216A284678
S31500003970B047431CA38906D129681D292CD82A4A99
S31500003980CA40D60728D500226260D904226922607F
S3150000399004D5421C01D12B6803B96065616B2F60A9
S315000039A00029CAD004F14403994202D02846FFF701
S315000039B047FB00206063C1E7216A01232846B04720
S315000039C0411CC7D12B68002BC4D01D2B01D0162B50
S315000039D001D12F60B1E7A38943F04003A381ADE78E
S315000039E00F69002FA9D093070E6808BF4B690F60B7
S315000039F018BF0023A6EB07088B60B8F1000F9CDD0B
S31500003A00216AA66A43463A462846B047002806DC9D
S31500003A10A38943F04003A3814FF0FF308EE70744AC
S31500003A20A8EB0008E9E700BF0100402038B50B69A4
S31500003A3005460C4613B90025284638BD18B18369DA
S31500003A400BB900F087F8144B9C421BD16C68B4F993
S31500003A500C30002BEFD0626ED00704D4990502D447
S31500003A60A06D00F015F928462146FFF759FF636E51
S31500003A70DA070546E0D4A3899B05DDD4A06D00F0E6
S31500003A8008F9D9E7054B9C4201D1AC68DFE7044B46
S31500003A909C4208BFEC68DAE77450000094500000BE
S31500003AA054500000002310B50446C0E90033C0E9B5
S31500003AB00433836081814366C2818361194608228B
S31500003AC05C30FFF74FFA054B6362054BA362054B6B
S31500003AD0E362054B2462236310BD00BFA13E0000D4
S31500003AE0C33E0000FB3E00001F3F0000014900F0FE
S31500003AF0AFB800BF2D3A000070B54A1E6825554381
S31500003B000E4605F17401FFF7EBFA044640B10021B9
S31500003B10C0E900160C30A06005F16802FFF722FA32
S31500003B20204670BD014800F0B3B800BF5002FE1F2A
S31500003B30014800F0AEB800BF5002FE1F014800F079
S31500003B40A7B800BF4B02FE1F014800F0A2B800BF95
S31500003B504B02FE1F10B50446FFF7F0FFA3691BB129
S31500003B60BDE81040FFF7F0BFC4E912332365134BDD
S31500003B70134A1B68A262A34204BF0123A361204625
S31500003B8000F020F86060204600F01CF8A060204697
S31500003B9000F018F80022E06004216068FFF782FF59
S31500003BA0A06801220921FFF77DFFE06802221221A9
S31500003BB0FFF778FF0123A361D2E700BF4C4F000057
S31500003BC0ED3A0000F8B50746FFF7ACFF1E4B1E683E
S31500003BD0B36913B93046FFF7BDFF4836D6E901345D
S31500003BE0013B03D533680BB33668F7E7B4F90C50DD
S31500003BF0D5B9164BE36004F15800656600F047F846
S31500003C00FFF796FFC4E90155C4E904552560A5618F
S31500003C100822294604F15C00FFF7A4F9C4E90D5512
S31500003C20C4E912552046F8BD6834D9E70421384660
S31500003C30FFF762FF044630600028D5D1FFF778FF12
S31500003C400C233B60EEE700BF4C4F00000100FFFF76
S31500003C502DE9F8430646884600F148040027D4E9D2
S31500003C600195B9F1010905D52468002CF7D138462C
S31500003C70BDE8F883AB89012B07D9B5F90E300133BE
S31500003C8003D029463046C04707436835E9E7704701
S31500003C907047704770B50E46B1F90E10002996B000
S31500003CA014461D4607DA00232B60B3891A0610D482
S31500003CB04FF480630EE06A4600F058F90028F2DB04
S31500003CC0019A02F47042A2F500535A425A412A6000
S31500003CD0EEE740230020236016B070BD8B8973B5D4
S31500003CE09D0706460C4607D504F14703236023616A
S31500003CF00123636102B070BD01AB6A46FFF7CAFFDC
S31500003D00009905463046FFF7EBF948B9B4F90C308F
S31500003D109A05EFD423F0030343F00203A381E3E7FC
S31500003D200D4BB362A389206043F08003A381009BFF
S31500003D306361019B20615BB1B4F90E10304600F05F
S31500003D4027F928B1A38923F0030343F00103A381D4
S31500003D50A0890543A581CDE7ED3A0000FFFFFFFFEF
S31500003D6001F0FF01102A2BDB10F0070F08D010F826
S31500003D70013B013A8B422DD010F0070F42B3F6D12A
S31500003D80F0B441EA012141EA014122F007047FF043
S31500003D9000070023F0E80256083C85EA010586EA9A
S31500003DA0010685FA47F5A3FA87F586FA47F6A5FAD6
S31500003DB087F68EB9EED1F0BC01F0FF0102F00702E2
S31500003DC032B110F8013B013A83EA010313B1F8D18D
S31500003DD00020704701387047002D06BF354603386E
S31500003DE0073815F0010F07D1013015F4807F02BFA7
S31500003DF0013015F4C03F0130F0BC0138704700BFF8
S31500003E000148FFF745BF00BF4C02FE1F0148FFF700
S31500003E1040BF00BF4C02FE1F1F2938B504460D46A1
S31500003E2004D9162303604FF0FF3038BD426C12B13F
S31500003E3052F821304BB9204600F030F82A460146A8
S31500003E402046BDE8384000F017B8012B0AD0591CAF
S31500003E5003D1162303600120E7E7002442F825403A
S31500003E60284698470020E0E7024B01461868FFF70E
S31500003E70D3BF00BF0000FE1F38B5074D0023044620
S31500003E80084611462B6000F025FB431C02D12B6827
S31500003E9003B1236038BD00BF5402FE1F00F0B6B95F
S31500003EA010B50C46B1F90E1000F094F80028ABBF1F
S31500003EB0636DA3891B1823F48053ACBF6365A3818C
S31500003EC010BD2DE9F0411F468B89DB0505460C46E2
S31500003ED0164605D5B1F90E100223002200F068F847
S31500003EE0A389B4F90E1023F48053A38132463B46CE
S31500003EF02846BDE8F04100F017B810B50C46B1F9F8
S31500003F000E1000F055F8431CA38915BF606523F415
S31500003F10805343F48053A38118BFA38110BDB1F928
S31500003F200E1000F013B8FFFF38B5074D04460846DB
S31500003F30114600222A601A4600F010F9431C02D1ED
S31500003F402B6803B1236038BD5402FE1F38B5064DF9
S31500003F500023044608462B6000F032F9431C02D1C8
S31500003F602B6803B1236038BD5402FE1F38B5074DD8
S31500003F7000230446084611462B6000F06AF9431CEC
S31500003F8002D12B6803B1236038BD00BF5402FE1F67
S31500003F9038B5064D0023044608462B6000F060FA4B
S31500003FA0431C02D12B6803B1236038BD5402FE1FA7
S31500003FB038B5074D04460846114600222A601A46BF
S31500003FC000F0BAF8431C02D12B6803B1236038BD58
S31500003FD05402FE1F38B5074D044608461146002216
S31500003FE02A601A4600F050F8431C02D12B6803B130
S31500003FF0236038BD5402FE1F0A4B10B504461868EC
S3150000400018B183690BB9FFF7A5FD132C07D806482D
S3150000401050F83420013202D000EBC40010BD00205D
S31500004020FCE700BF0000FE1FA801FE1FF8B5431CF9
S31500004030044609D1FEF790FF1326054600273046B1
S315000040403946ABBE06462E602046F8BDF8B5044696
S31500004050FEF782FF13260546002730463946ABBEDB
S3150000406006462E602046F8BD30B585B0CDE9010183
S315000040700392062401AD20462946ABBE04462046DF
S31500004080FFF7D4FF05B030BD37B515460191FFF7F0
S31500004090B3FF0199044638B9FEF75EFF09230360B2
S315000040A04FF0FF3003B030BD00682A46FFF7DCFF53
S315000040B0431CF7D063682A1A134463601046F1E77D
S315000040C0F7B50C461646FFF797FF054640B9FEF7CB
S315000040D043FF092303604FF0FF34204603B0F0BDD1
S315000040E0022E03D9FEF738FF1623F3E7012E12D16D
S315000040F04368E418F6D42B680A26CDE900346F46E7
S3150000410030463946ABBE06463046FFF78FFF0028DD
S31500004110E1DB6C60E1E7022EEDD1036800930C262B
S315000041206F4630463946ABBE06463046FFF77EFF41
S31500004130431CD0D00444DEE7FFF7C2BF30B585B0DC
S31500004140CDE901010392052401AD20462946ABBE07
S3150000415004462046FFF76AFF05B030BD37B5154661
S315000041600191FFF749FF0199044630B9FEF7F4FEC5
S31500004170092303604FF0FF3012E000682A46FFF77C
S31500004180DDFF0028F6DB62682B1A1A44A84262603B
S3150000419005D1002003B0BDE83040FFF757BF1846F1
S315000041A003B030BD37B50224019001AD2046294643
S315000041B0ABBE04462046FFF739FF03B030BDFFFF14
S315000041C038B50546FFF718FF044630B9FEF7C4FEBA
S315000041D0092303604FF0FF3038BD013D012D09D89A
S315000041E0094B9A681B699A4204D14FF0FF3303606A
S315000041F00020F1E72068FFF7D5FF0028ECD14FF04B
S31500004200FF332360E8E700BFA801FE1F01207047C7
S3150000421070B50C46FFF7F0FE054630B9FEF79CFE7A
S31500004220092303604FF0FF3070BD636843F4005309
S3150000423063604FF48063A3640C2630462946ABBE08
S3150000424005462846FFF7F2FE431C1CBF20610020EE
S31500004250EAE70B4610B50021044658221846FEF739
S3150000426081FE01462046BDE81040FFF7D1BF38B5B4
S315000042700D460446582200212846FEF773FE2046C6
S31500004280002100F011F8431C04460BD06B6843F480
S3150000429001436B602946FFF7BBFF05462046FFF743
S315000042A08FFF2C46204638BD2DE9F0432A4B97B0A8
S315000042B081460F4600251E4653F83540611C37D00F
S315000042C00135142DF8D1FEF747FE182303604FF091
S315000042D0FF343DE0C7F3004440F20163BA0748BF2C
S315000042E044F002041F4218BF44F004043B0748BFD1
S315000042F024F00404484648BF44F00804CDF8009072
S3150000430000F0F4F8CDE90140012420464146ABBE59
S315000043100446002C07DB46F8354006EBC5060023AD
S3150000432073602C4614E02046FFF790FE04460FE02B
S3150000433007F42063B3F5206FE846CBD141464846E3
S31500004340FFF795FF0130C5D0FEF706FE1123036087
S31500004350204617B0BDE8F083A801FE1F2DE9F743FC
S3150000436006460F462A4800211546FFF79DFF2A46B6
S31500004370044600213046FEF7F5FD631C16D02046A4
S31500004380FFF73AFE4FF00C09804648464146ABBE61
S3150000439080464046FFF74AFE032802DDC31EAB42B5
S315000043A008DC2046FFF70CFF4FF0FF34204603B031
S315000043B0BDE8F08304220DEB02012046FFF764FE00
S315000043C00328EEDD9DF80430532BEAD19DF8053025
S315000043D0482BE6D19DF80630462BE2D19DF80730F2
S315000043E0422BDED1012239462046FFF769FE00281E
S315000043F0D7DB2A4631462046FFF746FE05462046CD
S31500004400FFF7DEFE2846FFF711FE0446CEE700BFA3
S31500004410B450000037B50A4D0A4C0021012201A80C
S3150000442029602260FFF79AFF002807DD9DF8043017
S3150000443003F0010203F002032A60236003B030BDDB
S315000044406400FE1F6800FE1F10B5044C2268002A97
S3150000445001DAFFF7DFFF206810BD00BF6400FE1F12
S3150000446070B5FFF7C9FD0925044620B9FEF774FDAE
S315000044700560204670BD28462146ABBE0446012C89
S31500004480F7D0FEF769FD002405461326304621467F
S31500004490ABBE06462E60ECE7014608B5024A4FF071
S315000044A0FF3000F003F800BF2600020007B5CDE993
S315000044B00021FFF7C9FF002814BF20241824FFF7A6
S315000044C0C3FF20B16D4620462946ABBE0446009D7B
S315000044D0F9E7FFFF062908B50CBF024A024AFFF7B3
S315000044E0E5FF00BF2300020026000200034613F882
S315000044F0012B002AFBD1181A013870474275696CE6
S315000045007420776974682052656E657361732053F1
S31500004510796E657267792028544D2920536F667429
S3150000452077617265205061636B616765207665729D
S3150000453073696F6E20322E322E302B6275696C6471
S315000045402E63623535353165356535313836363861
S3150000455065616635353564313630633930343961F5
S31500004560393839616230663261000000322E322EEF
S315000045703000000000000202F8B500BFF8BC08BC1D
S315000045809E467047F8B500BFF8BC08BC9E4670470B
S31500004590210C0000110C0000990C000075090000A8
S315000045A07108000001090000F50A0000F10600008C
S315000045B0A5070000F90700003D080000C908000033
S315000045C0390700006D07000065090000F50D0000C1
S315000045D0C50D0000610D0000750D0000890D00007D
S315000045E09D0D0000B10D000000020002A1150000A3
S315000045F0511F0000E11900007D1600009D1D0000FE
S315000046009D140000750F0000CD1700003D1300003B
S3150000461081100000E51000000D11000035110000AA
S31500004620E11200005D11000085110000710E00000E
S31500004630750E0000911400008D1400009514000002
S3150000464099140000AD110000D5110000FD11000005
S3150000465059120000790E000000020002000001005D
S3150000466000000200010002000400FFFF000001003C
S315000046700200FFFF010002000300FFFF40420F009F
S315000046800000000040420F0000000000040000008F
S3150000469002000000002D310100366E0130040201D7
S315000046A0020A1E00D0FE0100FFFFFFFFFFFFFF36DC
S315000046B036FFFF8EFFFFFFFFFF808D815F4953832B
S315000046C09FFFFFFFFFFFFFFFD0F4D6FFDCFFFFFFDA
S315000046D0FFFFFFE5EEFFFFC34245466B8C8988FF6F
S315000046E0FFFFFFFFFFFFFFFF4F6D82848685FFFF01
S315000046F01CE001400070044004700440087004404F
S3150000470000050000010002000800FFFF0100000094
S315000047100000000000000000030000002047000029
S31500004720000601060206FFFF00000000904500009B
S315000047306E00000038470000008000000000000006
S315000047400080000001000000008000000200000060
S3150000475000400000040000000040000005000000CA
S315000047600040000006000000008000000800000075
S315000047700080000009000000004000000A00000060
S31500004780008000000E000000008000000F00000006
S3150000479000040106000100000004010601010000FA
S315000047A000040106020100000004010603010000E6
S315000047B000040104040100000004010405010000D6
S315000047C0000C0104060100000404000007010000BB
S315000047D000000100080100000000010009010000BE
S315000047E0000001000A010000004000000B0100006B
S315000047F0000000000C010000040400000D01000090
S31500004800000C010402020000000000000302000088
S315000048100000010C040200000000010C050200006B
S315000048200000010C060200000000010C0702000057
S315000048300000010000030000000401040103000061
S31500004840000401040203000000000000030300004E
S315000048500004010404030000000401040503000031
S31500004860000C010406030000040400000703000016
S315000048700000000008030000040400000903000013
S31500004880000000000A030000000000000B03000007
S31500004890000000000C030000000401190D030000D5
S315000048A0000401190E030000000401190F030000A3
S315000048B00040000000040000000001100104000098
S315000048C000000110020400000004011703040000A8
S315000048D00004011704040000000C01170504000081
S315000048E0000C011706040000000001130704000075
S315000048F00000010C080400000000010C090400007F
S31500004900000401040A040000000401040B04000072
S31500004910000C01040C040000040400000D04000057
S315000049200000010C0E0400000000010C0F04000042
S31500004930000C011100050000000C0111010500002A
S31500004940000C011102050000000C01110305000016
S31500004950000C011104050000000C01110505000002
S31500004960000000000605000000000000070500002A
S315000049700404000000060000040400000106000014
S315000049800404000002060000000000000306000008
S3150000499000000000040600000000000005060000FC
S315000049A000040119060600000004011907060000AC
S315000049B00000000008060000000000000D060000D0
S315000049C0000000000E060000000401190F0600009A
S315000049D0000C011700070000000C0117010700007A
S315000049E0000C011702070000000C01170307000066
S315000049F0000C011704070000000C01170507000052
S31500004A000004010506070000000401050707000071
S31500004A10040400000008000004040000010800006F
S31500004A20000401190208000000040119030800002F
S31500004A300004011904080000040400000608000030
S31500004A40000C011900090000000401190109000009
S31500004A5000040119050900000004011906090000F7
S31500004A6000040119070900000004011908090000E3
S31500004A7000040119000A000000040119010A0000DF
S31500004A8000040119080A000000040119090A0000BF
S31500004A90000401190A0A000000000114000B0000BE
S31500004AA000000114010B00000001010201020203D3
S31500004AB001020203020303040102020302030304C8
S31500004AC002030304030404050102020302030304B0
S31500004AD00203030403040405020303040304040598
S31500004AE00304040504050506010202030203030488
S31500004AF00203030403040405020303040304040578
S31500004B00030404050405050602030304030404055F
S31500004B100304040504050506030404050405050647
S31500004B200405050605060607000103070F1F3F7F5C
S31500004B30852C0000812B0000C52B0000152D0000E0
S31500004B40052C0000B12B0000000200020200031039
S31500004B50040000001C00000013000000030E0010FB
S31500004B60FFFFFFFFFFFFFFFFFFFFFFFFFFFFFFFF4F
S31500004B70523746533747323748334130314346433D
S31500004B8057533134343141313030000000000000D9
S31500004B9002B06400F000000001000810F3E0BFB6A8
S31500004BA0057933498B43F24F1693A05D1E7A1DD8C3
S31500004BB0700D7A8242786A5EC35C0B19040050114C
S31500004BC000000040FFFF0008FFC110081FFF1B0583
S31500004BD07F0028073F002F063E8047804C806A00F2
S31500004BE064806B00820056806E00BD80B0808300BA
S31500004BF06F005B80700072007100730074007500B6
S31500004C008A8086808D80CF8076006C006D00B580AE
S31500004C107B007A007C00A080770078007900908085
S31500004C209A80978084009D80A3807D00D580D8805F
S31500004C30A6808500AD80A980DE807E007F00800092
S31500004C40810000000607021000000000FFFF0000C0
S31500004C50002000000001000000000100FFFF3F00EF
S31500004C60008000000001000006070110000010404F
S31500004C70FFFF104040000000040000000A0004107E
S31500004C80070B0B0F0000FE1FFFFFFF1F0000002099
S31500004C90FFFF032000000420FFFF072000E00F2095
S31500004CA0FFFF0F20010700100800400000500040E1
S31500004CB00803011000520040015F00100100000CC3
S31500004CC000000040011F001001000001000C004020
S31500004CD00003001001000001000D00400107001054
S31500004CE00100000100E07F400003001001001000F9
S31500004CF000C07F40E0010310B0010310C0010310A3
S31500004D00200003105400031030000F10700403102D
S31500004D100008071010000310460403104105031095
S31500004D2040070310000C0310400407104204031050
S31500004D3044040310D0050310E0050B10F005031022
S31500004D400F07071040090310000E0711400E03104D
S31500004D50600E03106000071010040310B007071060
S31500004D60800403100200001003000001003005401B
S31500004D7007030300000F00100A0020000000074090
S31500004D80000F001002000001002007400200001082
S31500004D900E000001008007403F1F1F1F0F0F0F0F5F
S31500004DA007070707070700000003001001001000AF
S31500004DB0F08F0740000300100400000100200440AB
S31500004DC00003001002000001004008400007001028
S31500004DD00600000100500840000700100200001005
S31500004DE000000540000700100200000400200640F5
S31500004DF00200001002000002004006400707000003
S31500004E00000700110200000100E004400103001049
S31500004E10C00004000008044008030110000D04400F
S31500004E20040002100200000200C005402B2B000007
S31500004E307F007F003F000F007F006F001F000F0004
S31500004E40040001100C00200000000440070B0B0BAF
S31500004E500B03030303030303FFCFFFC7FFFFFFFF9C
S31500004E60FF30FF30FFFFFFFFFFFFFFFFFFFFFF38B1
S31500004E70FFFFFFFFFFFFFF00FF3F7F00FFFFE30194
S31500004E80FFFF0307FF0003000400021001002000DB
S31500004E900010084003000000FFFFFF0F03000000A2
S31500004EA0000300100100000200000064011700105A
S31500004EB00100001000000940001F00200100000250
S31500004EC000000640010300100100000100440640F6
S31500004ED00103001001000001004506400103001017
S31500004EE00100000800500640000300100200000404
S31500004EF000580640FFFFFFFFFFFFFFFFFFFFFFFF1A
S31500004F00FFFFFFFFFFFFFFFFFFFFFFFFFFFFFFFFAB
S31500004F10FFFFFFFFFFFFFFFFFFFFFFFFFFFFFFFF9B
S31500004F20FFFFFFFFFFFFFFFFFFFFFFFFFFFFFFFF8B
S31500004F30FFFFFFFFFFFFFFFFFFFFFFFFFFFFFFFF7B
S31500004F40FFFFFFFFFFFFFFFF725ABC9E0400FE1F1C
S31500004F505245454E54206D616C6C6F6320737563CA
S31500004F60636565646564002F6D6E742F776F726B71
S31500004F7073706163652F776F726B73706163652FF2
S31500004F804743432D392D706970656C696E652F6ACC
S31500004F90656E6B696E732D4743432D392D706970AD
S31500004FA0656C696E652D3230305F323032303035A7
S31500004FB032315F313539303035333337342F737210
S31500004FC0632F6E65776C69622F6E65776C69622FE9
S31500004FD06C6962632F7374646C69622F72616E64AC
S31500004FE02E63002C2066756E6374696F6E3A20001E
S31500004FF0617373657274696F6E2022257322206651
S3150000500061696C65643A2066696C652022257322A5
S315000050102C206C696E65202564257325730A002390
S315000050202D302B2000686C4C0065666745464700AE
S3150000503030313233343536373839414243444546C8
S31500005040003031323334353637383961626364655E
S315000050506600FFFF000000000000000000000000E6
S31500005060000000000000000000000000000000003A
S31500005070000000000000000000000000000000002A
S31500005080000000000000000000000000000000001A
S31500005090000000000000000000000000000000000A
S315000050A000000000000000000000000000000000FA
S315000050B0000000003A73656D69686F7374696E6706
S315000050C02D666561747572657300FFFF0000000050
S315000050D00400FE1F00000000745000009450000001
S315000050E05450000000000000000000000000000016
S315000050F000000000000000000000000000000000AA
S315000051000000000000000000000000000000000099
S315000051100000000000000000000000000000000089
S315000051200000000000000000000000000000000079
S3150000513000000000FFFFFFFFFFFFFFFFD506000096
S31500005140B1060000000000000000000000000000A2
S315000051500000000000000000000000000000000049
S315000051600000000000000000000000000000000039
S315000051700000000000000000000000000000000029
S315000051800000000000000000000000000000000019
S315000051900000000000000000000000000000000009
S315000051A000000000000000000000000000000000F9
S31540120050FFFFFFFFFFFFFFFFFFFFFFFFFFFFFFFF58
S705000027E9EA
